{"abi":[{"type":"constructor","inputs":[],"stateMutability":"nonpayable"},{"type":"function","name":"CRYSTAL","inputs":[],"outputs":[{"name":"","type":"uint256","internalType":"uint256"}],"stateMutability":"view"},{"type":"function","name":"DEFAULT_ADMIN_ROLE","inputs":[],"outputs":[{"name":"","type":"bytes32","internalType":"bytes32"}],"stateMutability":"view"},{"type":"function","name":"DRAGON_SHIELD","inputs":[],"outputs":[{"name":"","type":"uint256","internalType":"uint256"}],"stateMutability":"view"},{"type":"function","name":"GOLD","inputs":[],"outputs":[{"name":"","type":"uint256","internalType":"uint256"}],"stateMutability":"view"},{"type":"function","name":"IRON","inputs":[],"outputs":[{"name":"","type":"uint256","internalType":"uint256"}],"stateMutability":"view"},{"type":"function","name":"LEGENDARY_SWORD","inputs":[],"outputs":[{"name":"","type":"uint256","internalType":"uint256"}],"stateMutability":"view"},{"type":"function","name":"MAGIC_STAFF","inputs":[],"outputs":[{"name":"","type":"uint256","internalType":"uint256"}],"stateMutability":"view"},{"type":"function","name":"MINTER_ROLE","inputs":[],"outputs":[{"name":"","type":"bytes32","internalType":"bytes32"}],"stateMutability":"view"},{"type":"function","name":"WOOD","inputs":[],"outputs":[{"name":"","type":"uint256","internalType":"uint256"}],"stateMutability":"view"},{"type":"function","name":"balanceOf","inputs":[{"name":"account","type":"address","internalType":"address"},{"name":"id","type":"uint256","internalType":"uint256"}],"outputs":[{"name":"","type":"uint256","internalType":"uint256"}],"stateMutability":"view"},{"type":"function","name":"balanceOfBatch","inputs":[{"name":"accounts","type":"address[]","internalType":"address[]"},{"name":"ids","type":"uint256[]","internalType":"uint256[]"}],"outputs":[{"name":"","type":"uint256[]","internalType":"uint256[]"}],"stateMutability":"view"},{"type":"function","name":"craft","inputs":[{"name":"inputIds","type":"uint256[]","internalType":"uint256[]"},{"name":"inputAmounts","type":"uint256[]","internalType":"uint256[]"},{"name":"outputId","type":"uint256","internalType":"uint256"},{"name":"outputAmount","type":"uint256","internalType":"uint256"}],"outputs":[],"stateMutability":"nonpayable"},{"type":"function","name":"getRoleAdmin","inputs":[{"name":"role","type":"bytes32","internalType":"bytes32"}],"outputs":[{"name":"","type":"bytes32","internalType":"bytes32"}],"stateMutability":"view"},{"type":"function","name":"grantRole","inputs":[{"name":"role","type":"bytes32","internalType":"bytes32"},{"name":"account","type":"address","internalType":"address"}],"outputs":[],"stateMutability":"nonpayable"},{"type":"function","name":"hasRole","inputs":[{"name":"role","type":"bytes32","internalType":"bytes32"},{"name":"account","type":"address","internalType":"address"}],"outputs":[{"name":"","type":"bool","internalType":"bool"}],"stateMutability":"view"},{"type":"function","name":"isApprovedForAll","inputs":[{"name":"account","type":"address","internalType":"address"},{"name":"operator","type":"address","internalType":"address"}],"outputs":[{"name":"","type":"bool","internalType":"bool"}],"stateMutability":"view"},{"type":"function","name":"maxSupply","inputs":[{"name":"","type":"uint256","internalType":"uint256"}],"outputs":[{"name":"","type":"uint256","internalType":"uint256"}],"stateMutability":"view"},{"type":"function","name":"mint","inputs":[{"name":"to","type":"address","internalType":"address"},{"name":"id","type":"uint256","internalType":"uint256"},{"name":"amount","type":"uint256","internalType":"uint256"}],"outputs":[],"stateMutability":"nonpayable"},{"type":"function","name":"mintBatch","inputs":[{"name":"to","type":"address","internalType":"address"},{"name":"ids","type":"uint256[]","internalType":"uint256[]"},{"name":"amounts","type":"uint256[]","internalType":"uint256[]"}],"outputs":[],"stateMutability":"nonpayable"},{"type":"function","name":"renounceRole","inputs":[{"name":"role","type":"bytes32","internalType":"bytes32"},{"name":"callerConfirmation","type":"address","internalType":"address"}],"outputs":[],"stateMutability":"nonpayable"},{"type":"function","name":"revokeRole","inputs":[{"name":"role","type":"bytes32","internalType":"bytes32"},{"name":"account","type":"address","internalType":"address"}],"outputs":[],"stateMutability":"nonpayable"},{"type":"function","name":"safeBatchTransferFrom","inputs":[{"name":"from","type":"address","internalType":"address"},{"name":"to","type":"address","internalType":"address"},{"name":"ids","type":"uint256[]","internalType":"uint256[]"},{"name":"values","type":"uint256[]","internalType":"uint256[]"},{"name":"data","type":"bytes","internalType":"bytes"}],"outputs":[],"stateMutability":"nonpayable"},{"type":"function","name":"safeTransferFrom","inputs":[{"name":"from","type":"address","internalType":"address"},{"name":"to","type":"address","internalType":"address"},{"name":"id","type":"uint256","internalType":"uint256"},{"name":"value","type":"uint256","internalType":"uint256"},{"name":"data","type":"bytes","internalType":"bytes"}],"outputs":[],"stateMutability":"nonpayable"},{"type":"function","name":"setApprovalForAll","inputs":[{"name":"operator","type":"address","internalType":"address"},{"name":"approved","type":"bool","internalType":"bool"}],"outputs":[],"stateMutability":"nonpayable"},{"type":"function","name":"supportsInterface","inputs":[{"name":"interfaceId","type":"bytes4","internalType":"bytes4"}],"outputs":[{"name":"","type":"bool","internalType":"bool"}],"stateMutability":"view"},{"type":"function","name":"totalMinted","inputs":[{"name":"","type":"uint256","internalType":"uint256"}],"outputs":[{"name":"","type":"uint256","internalType":"uint256"}],"stateMutability":"view"},{"type":"function","name":"uri","inputs":[{"name":"id","type":"uint256","internalType":"uint256"}],"outputs":[{"name":"","type":"string","internalType":"string"}],"stateMutability":"pure"},{"type":"event","name":"ApprovalForAll","inputs":[{"name":"account","type":"address","indexed":true,"internalType":"address"},{"name":"operator","type":"address","indexed":true,"internalType":"address"},{"name":"approved","type":"bool","indexed":false,"internalType":"bool"}],"anonymous":false},{"type":"event","name":"CraftCompleted","inputs":[{"name":"player","type":"address","indexed":true,"internalType":"address"},{"name":"outputId","type":"uint256","indexed":true,"internalType":"uint256"},{"name":"amount","type":"uint256","indexed":false,"internalType":"uint256"}],"anonymous":false},{"type":"event","name":"RoleAdminChanged","inputs":[{"name":"role","type":"bytes32","indexed":true,"internalType":"bytes32"},{"name":"previousAdminRole","type":"bytes32","indexed":true,"internalType":"bytes32"},{"name":"newAdminRole","type":"bytes32","indexed":true,"internalType":"bytes32"}],"anonymous":false},{"type":"event","name":"RoleGranted","inputs":[{"name":"role","type":"bytes32","indexed":true,"internalType":"bytes32"},{"name":"account","type":"address","indexed":true,"internalType":"address"},{"name":"sender","type":"address","indexed":true,"internalType":"address"}],"anonymous":false},{"type":"event","name":"RoleRevoked","inputs":[{"name":"role","type":"bytes32","indexed":true,"internalType":"bytes32"},{"name":"account","type":"address","indexed":true,"internalType":"address"},{"name":"sender","type":"address","indexed":true,"internalType":"address"}],"anonymous":false},{"type":"event","name":"TransferBatch","inputs":[{"name":"operator","type":"address","indexed":true,"internalType":"address"},{"name":"from","type":"address","indexed":true,"internalType":"address"},{"name":"to","type":"address","indexed":true,"internalType":"address"},{"name":"ids","type":"uint256[]","indexed":false,"internalType":"uint256[]"},{"name":"values","type":"uint256[]","indexed":false,"internalType":"uint256[]"}],"anonymous":false},{"type":"event","name":"TransferSingle","inputs":[{"name":"operator","type":"address","indexed":true,"internalType":"address"},{"name":"from","type":"address","indexed":true,"internalType":"address"},{"name":"to","type":"address","indexed":true,"internalType":"address"},{"name":"id","type":"uint256","indexed":false,"internalType":"uint256"},{"name":"value","type":"uint256","indexed":false,"internalType":"uint256"}],"anonymous":false},{"type":"event","name":"URI","inputs":[{"name":"value","type":"string","indexed":false,"internalType":"string"},{"name":"id","type":"uint256","indexed":true,"internalType":"uint256"}],"anonymous":false},{"type":"error","name":"AccessControlBadConfirmation","inputs":[]},{"type":"error","name":"AccessControlUnauthorizedAccount","inputs":[{"name":"account","type":"address","internalType":"address"},{"name":"neededRole","type":"bytes32","internalType":"bytes32"}]},{"type":"error","name":"ERC1155InsufficientBalance","inputs":[{"name":"sender","type":"address","internalType":"address"},{"name":"balance","type":"uint256","internalType":"uint256"},{"name":"needed","type":"uint256","internalType":"uint256"},{"name":"tokenId","type":"uint256","internalType":"uint256"}]},{"type":"error","name":"ERC1155InvalidApprover","inputs":[{"name":"approver","type":"address","internalType":"address"}]},{"type":"error","name":"ERC1155InvalidArrayLength","inputs":[{"name":"idsLength","type":"uint256","internalType":"uint256"},{"name":"valuesLength","type":"uint256","internalType":"uint256"}]},{"type":"error","name":"ERC1155InvalidOperator","inputs":[{"name":"operator","type":"address","internalType":"address"}]},{"type":"error","name":"ERC1155InvalidReceiver","inputs":[{"name":"receiver","type":"address","internalType":"address"}]},{"type":"error","name":"ERC1155InvalidSender","inputs":[{"name":"sender","type":"address","internalType":"address"}]},{"type":"error","name":"ERC1155MissingApprovalForAll","inputs":[{"name":"operator","type":"address","internalType":"address"},{"name":"owner","type":"address","internalType":"address"}]}],"bytecode":{"object":"0x608060405234801561000f575f5ffd5b50604051806060016040528060268152602001611f6260269139610032816100e4565b5061003d5f336100f4565b506100687f9f2df0fed2c77648de5860a4cc508cd0818c85b8b8a1ab4ceeef8d981c8956a6336100f4565b50600460205260647f290f3bb17f303edd0f106ab04bdb0515d193106e8c2b48d993115d216da01cb18190557f56751dd9534a4025520708fb24b7b0d243a2b8aeda2c1c014349d4820461947c8190556103ea5f527f8c2505006369de36d1519aa1e9b16fce0b87abbd5625d87bd45f52cb4e44f1ba55610302565b60026100f08282610244565b5050565b5f8281526003602090815260408083206001600160a01b038516845290915281205460ff16610198575f8381526003602090815260408083206001600160a01b03861684529091529020805460ff191660011790556101503390565b6001600160a01b0316826001600160a01b0316847f2f8788117e7eff1d82e926ec794901d17c78024a50270940304540a733656f0d60405160405180910390a450600161019b565b505f5b92915050565b634e487b7160e01b5f52604160045260245ffd5b600181811c908216806101c957607f821691505b6020821081036101e757634e487b7160e01b5f52602260045260245ffd5b50919050565b601f82111561023f578282111561023f57805f5260205f20601f840160051c602085101561021857505f5b90810190601f840160051c035f5b8181101561023b575f83820155600101610226565b5050505b505050565b81516001600160401b0381111561025d5761025d6101a1565b6102718161026b84546101b5565b846101ed565b6020601f8211600181146102a3575f831561028c5750848201515b5f19600385901b1c1916600184901b1784556102fb565b5f84815260208120601f198516915b828110156102d257878501518255602094850194600190920191016102b2565b50848210156102ef57868401515f19600387901b60f8161c191681555b505060018360011b0184555b5050505050565b611c538061030f5f395ff3fe608060405234801561000f575f5ffd5b50600436106101a0575f3560e01c80635653e3ac116100f3578063ae44ad4211610093578063d547741f1161006e578063d547741f1461037d578063d81d0a1514610390578063e985e9c5146103a3578063f242432a146103de575f5ffd5b8063ae44ad4214610345578063cc7871ff1461034d578063d539139314610356575f5ffd5b806391d14854116100ce57806391d14854146102f95780639d7f4ebf1461030c578063a217fddf1461032b578063a22cb46514610332575f5ffd5b80635653e3ac146102c9578063869f7594146102d157806387543a38146102f0575f5ffd5b80632eb2c2d61161015e57806336568abe1161013957806336568abe1461027b57806339708efa1461028e5780633e4bee38146102a15780634e1273f4146102a9575f5ffd5b80632eb2c2d61461024c5780632f2ff15d1461025f5780633484514814610272575f5ffd5b8062fdd58e146101a457806301ffc9a7146101ca5780630e89341c146101ed578063156e29f61461020d5780631fd81bcd14610222578063248a9ca31461022a575b5f5ffd5b6101b76101b2366004611491565b6103f1565b6040519081526020015b60405180910390f35b6101dd6101d83660046114ce565b610418565b60405190151581526020016101c1565b6102006101fb3660046114f0565b610422565b6040516101c19190611535565b61022061021b366004611547565b610453565b005b6101b7600381565b6101b76102383660046114f0565b5f9081526003602052604090206001015490565b61022061025a3660046116b2565b610520565b61022061026d36600461175e565b61053f565b6101b76103e881565b61022061028936600461175e565b610563565b61022061029c3660046117cf565b61059b565b6101b7600181565b6102bc6102b736600461184a565b6106d9565b6040516101c19190611945565b6101b7600281565b6101b76102df3660046114f0565b60046020525f908152604090205481565b6101b76103ea81565b6101dd61030736600461175e565b6107a3565b6101b761031a3660046114f0565b60056020525f908152604090205481565b6101b75f81565b610220610340366004611957565b6107cd565b6101b7600481565b6101b76103e981565b6101b77f9f2df0fed2c77648de5860a4cc508cd0818c85b8b8a1ab4ceeef8d981c8956a681565b61022061038b36600461175e565b6107dc565b61022061039e366004611990565b610800565b6101dd6103b1366004611a0e565b6001600160a01b039182165f90815260016020908152604080832093909416825291909152205460ff1690565b6102206103ec366004611a36565b6109db565b5f818152602081815260408083206001600160a01b03861684529091529020545b92915050565b5f610412826109f1565b606061042d82610a15565b60405160200161043d9190611a89565b6040516020818303038152906040529050919050565b7f9f2df0fed2c77648de5860a4cc508cd0818c85b8b8a1ab4ceeef8d981c8956a661047d81610aa4565b5f83815260046020526040902054156104dc575f838152600460209081526040808320546005909252909120546104b5908490611ad5565b11156104dc5760405162461bcd60e51b81526004016104d390611af4565b60405180910390fd5b5f83815260056020526040812080548492906104f9908490611ad5565b9250508190555061051a84848460405180602001604052805f815250610ab1565b50505050565b61052b335b86610b0d565b6105388585858585610b85565b5050505050565b5f8281526003602052604090206001015461055981610aa4565b61051a8383610be5565b6001600160a01b038116331461058c5760405163334bd91960e11b815260040160405180910390fd5b6105968282610c76565b505050565b610607338787808060200260200160405190810160405280939291908181526020018383602002808284375f9201919091525050604080516020808b0282810182019093528a82529093508a9250899182918501908490808284375f92019190915250610ce192505050565b5f8281526004602052604090205415610680575f8281526004602090815260408083205460059092529091205461063f908390611ad5565b111561065d5760405162461bcd60e51b81526004016104d390611af4565b5f828152600560205260408120805483929061067a908490611ad5565b90915550505b61069a33838360405180602001604052805f815250610ab1565b604051818152829033907f8a378946be9b59034db4372bfaab2f9fe3e7153f247795097422c02dbbb932b19060200160405180910390a3505050505050565b6060815183511461070a5781518351604051635b05999160e01b8152600481019290925260248201526044016104d3565b5f83516001600160401b0381111561072457610724611577565b60405190808252806020026020018201604052801561074d578160200160208202803683370190505b5090505f5b845181101561079b57602080820286010151610776906020808402870101516103f1565b82828151811061078857610788611b20565b6020908102919091010152600101610752565b509392505050565b5f9182526003602090815260408084206001600160a01b0393909316845291905290205460ff1690565b6107d8338383610d26565b5050565b5f828152600360205260409020600101546107f681610aa4565b61051a8383610c76565b7f9f2df0fed2c77648de5860a4cc508cd0818c85b8b8a1ab4ceeef8d981c8956a661082a81610aa4565b5f5b84811015610958575f60045f88888581811061084a5761084a611b20565b9050602002013581526020019081526020015f205411156109505760045f87878481811061087a5761087a611b20565b9050602002013581526020019081526020015f20548484838181106108a1576108a1611b20565b9050602002013560055f8989868181106108bd576108bd611b20565b9050602002013581526020019081526020015f20546108dc9190611ad5565b11156108fa5760405162461bcd60e51b81526004016104d390611af4565b83838281811061090c5761090c611b20565b9050602002013560055f88888581811061092857610928611b20565b9050602002013581526020019081526020015f205f82825461094a9190611ad5565b90915550505b60010161082c565b506109d3868686808060200260200160405190810160405280939291908181526020018383602002808284375f9201919091525050604080516020808a028281018201909352898252909350899250889182918501908490808284375f92018290525060408051602081019091529081529250610de3915050565b505050505050565b6109e433610525565b6105388585858585610e1b565b5f6001600160e01b03198216637965db0b60e01b1480610412575061041282610ea8565b60605f610a2183610ef7565b60010190505f816001600160401b03811115610a3f57610a3f611577565b6040519080825280601f01601f191660200182016040528015610a69576020820181803683370190505b5090508181016020015b5f19016f181899199a1a9b1b9c1cb0b131b232b360811b600a86061a8153600a8504945084610a7357509392505050565b610aae8133610fce565b50565b6001600160a01b038416610ada57604051632bfa23e760e11b81525f60048201526024016104d3565b604080516001808252602082018690528183019081526060820185905260808201909252906109d35f8784848784611007565b816001600160a01b0316816001600160a01b031614158015610b5457506001600160a01b038082165f9081526001602090815260408083209386168352929052205460ff16155b156107d85760405163711bec9160e11b81526001600160a01b038084166004830152821660248201526044016104d3565b6001600160a01b038416610bae57604051632bfa23e760e11b81525f60048201526024016104d3565b6001600160a01b038516610bd657604051626a0d4560e21b81525f60048201526024016104d3565b61053885858585856001611007565b5f610bf083836107a3565b610c6f575f8381526003602090815260408083206001600160a01b03861684529091529020805460ff19166001179055610c273390565b6001600160a01b0316826001600160a01b0316847f2f8788117e7eff1d82e926ec794901d17c78024a50270940304540a733656f0d60405160405180910390a4506001610412565b505f610412565b5f610c8183836107a3565b15610c6f575f8381526003602090815260408083206001600160a01b0386168085529252808320805460ff1916905551339286917ff6391f5c32d9c69d2a47ea670b442974b53935d1edc7fd64eb21e047a839171b9190a4506001610412565b6001600160a01b038316610d0957604051626a0d4560e21b81525f60048201526024016104d3565b610596835f848460405180602001604052805f8152506001611007565b6001600160a01b038316610d4f57604051631f18c42760e11b81525f60048201526024016104d3565b6001600160a01b038216610d775760405162ced3e160e81b81525f60048201526024016104d3565b6001600160a01b038381165f81815260016020908152604080832094871680845294825291829020805460ff191686151590811790915591519182527f17307eab39ab6107e8899845ad3d59bd9653f200f220920489ca2b5937696c31910160405180910390a3505050565b6001600160a01b038416610e0c57604051632bfa23e760e11b81525f60048201526024016104d3565b61051a5f858585856001611007565b6001600160a01b038416610e4457604051632bfa23e760e11b81525f60048201526024016104d3565b6001600160a01b038516610e6c57604051626a0d4560e21b81525f60048201526024016104d3565b60408051600180825260208201869052818301908152606082018590526080820190925290610e9f87878484875f611007565b50505050505050565b5f6001600160e01b03198216636cdb3d1360e11b1480610ed857506001600160e01b031982166303a24d0760e21b145b8061041257506301ffc9a760e01b6001600160e01b0319831614610412565b5f8072184f03e93ff9f4daa797ed6e38ed64bf6a1f0160401b8310610f355772184f03e93ff9f4daa797ed6e38ed64bf6a1f0160401b830492506040015b6d04ee2d6d415b85acef81000000008310610f61576d04ee2d6d415b85acef8100000000830492506020015b662386f26fc100008310610f7f57662386f26fc10000830492506010015b6305f5e1008310610f97576305f5e100830492506008015b6127108310610fab57612710830492506004015b60648310610fbd576064830492506002015b600a83106104125760010192915050565b610fd882826107a3565b6107d85760405163e2517d3f60e01b81526001600160a01b0382166004820152602481018390526044016104d3565b6110138686868661105f565b6001600160a01b038516156109d35733811561103c5761103781888888888861126e565b610e9f565b60208581015190850151611054838a8a85858a61138f565b505050505050505050565b805182511461108e5781518151604051635b05999160e01b8152600481019290925260248201526044016104d3565b335f5b8351811015611190576020818102858101820151908501909101516001600160a01b03881615611142575f828152602081815260408083206001600160a01b038c1684529091529020548181101561111c576040516303dee4c560e01b81526001600160a01b038a1660048201526024810182905260448101839052606481018490526084016104d3565b5f838152602081815260408083206001600160a01b038d16845290915290209082900390555b6001600160a01b03871615611186575f828152602081815260408083206001600160a01b038b16845290915281208054839290611180908490611ad5565b90915550505b5050600101611091565b5082516001036112105760208301515f906020840151909150856001600160a01b0316876001600160a01b0316846001600160a01b03167fc3d58168c5ae7397731d063d5bbf3d657854427343f4c083240f7aacaa2d0f628585604051611201929190918252602082015260400190565b60405180910390a45050610538565b836001600160a01b0316856001600160a01b0316826001600160a01b03167f4a39dc06d4c0dbc64b70af90fd698a233a518aa5d07e595d983b8c0526c8f7fb868660405161125f929190611b34565b60405180910390a45050505050565b6001600160a01b0384163b156109d35760405163bc197c8160e01b81526001600160a01b0385169063bc197c81906112b29089908990889088908890600401611b61565b6020604051808303815f875af19250505080156112ec575060408051601f3d908101601f191682019092526112e991810190611bbe565b60015b611353573d808015611319576040519150601f19603f3d011682016040523d82523d5f602084013e61131e565b606091505b5080515f0361134b57604051632bfa23e760e11b81526001600160a01b03861660048201526024016104d3565b805160208201fd5b6001600160e01b0319811663bc197c8160e01b14610e9f57604051632bfa23e760e11b81526001600160a01b03861660048201526024016104d3565b6001600160a01b0384163b156109d35760405163f23a6e6160e01b81526001600160a01b0385169063f23a6e61906113d39089908990889088908890600401611bd9565b6020604051808303815f875af192505050801561140d575060408051601f3d908101601f1916820190925261140a91810190611bbe565b60015b61143a573d808015611319576040519150601f19603f3d011682016040523d82523d5f602084013e61131e565b6001600160e01b0319811663f23a6e6160e01b14610e9f57604051632bfa23e760e11b81526001600160a01b03861660048201526024016104d3565b80356001600160a01b038116811461148c575f5ffd5b919050565b5f5f604083850312156114a2575f5ffd5b6114ab83611476565b946020939093013593505050565b6001600160e01b031981168114610aae575f5ffd5b5f602082840312156114de575f5ffd5b81356114e9816114b9565b9392505050565b5f60208284031215611500575f5ffd5b5035919050565b5f81518084528060208401602086015e5f602082860101526020601f19601f83011685010191505092915050565b602081525f6114e96020830184611507565b5f5f5f60608486031215611559575f5ffd5b61156284611476565b95602085013595506040909401359392505050565b634e487b7160e01b5f52604160045260245ffd5b604051601f8201601f191681016001600160401b03811182821017156115b3576115b3611577565b604052919050565b5f6001600160401b038211156115d3576115d3611577565b5060051b60200190565b5f82601f8301126115ec575f5ffd5b81356115ff6115fa826115bb565b61158b565b8082825260208201915060208360051b860101925085831115611620575f5ffd5b602085015b8381101561163d578035835260209283019201611625565b5095945050505050565b5f82601f830112611656575f5ffd5b81356001600160401b0381111561166f5761166f611577565b611682601f8201601f191660200161158b565b818152846020838601011115611696575f5ffd5b816020850160208301375f918101602001919091529392505050565b5f5f5f5f5f60a086880312156116c6575f5ffd5b6116cf86611476565b94506116dd60208701611476565b935060408601356001600160401b038111156116f7575f5ffd5b611703888289016115dd565b93505060608601356001600160401b0381111561171e575f5ffd5b61172a888289016115dd565b92505060808601356001600160401b03811115611745575f5ffd5b61175188828901611647565b9150509295509295909350565b5f5f6040838503121561176f575f5ffd5b8235915061177f60208401611476565b90509250929050565b5f5f83601f840112611798575f5ffd5b5081356001600160401b038111156117ae575f5ffd5b6020830191508360208260051b85010111156117c8575f5ffd5b9250929050565b5f5f5f5f5f5f608087890312156117e4575f5ffd5b86356001600160401b038111156117f9575f5ffd5b61180589828a01611788565b90975095505060208701356001600160401b03811115611823575f5ffd5b61182f89828a01611788565b979a9699509760408101359660609091013595509350505050565b5f5f6040838503121561185b575f5ffd5b82356001600160401b03811115611870575f5ffd5b8301601f81018513611880575f5ffd5b803561188e6115fa826115bb565b8082825260208201915060208360051b8501019250878311156118af575f5ffd5b6020840193505b828410156118d8576118c784611476565b8252602093840193909101906118b6565b945050505060208301356001600160401b038111156118f5575f5ffd5b611901858286016115dd565b9150509250929050565b5f8151808452602084019350602083015f5b8281101561193b57815186526020958601959091019060010161191d565b5093949350505050565b602081525f6114e9602083018461190b565b5f5f60408385031215611968575f5ffd5b61197183611476565b915060208301358015158114611985575f5ffd5b809150509250929050565b5f5f5f5f5f606086880312156119a4575f5ffd5b6119ad86611476565b945060208601356001600160401b038111156119c7575f5ffd5b6119d388828901611788565b90955093505060408601356001600160401b038111156119f1575f5ffd5b6119fd88828901611788565b969995985093965092949392505050565b5f5f60408385031215611a1f575f5ffd5b611a2883611476565b915061177f60208401611476565b5f5f5f5f5f60a08688031215611a4a575f5ffd5b611a5386611476565b9450611a6160208701611476565b9350604086013592506060860135915060808601356001600160401b03811115611745575f5ffd5b7f68747470733a2f2f6170692e67616d6566692e636f6d2f6974656d732f00000081525f82518060208501601d85015e64173539b7b760d91b601d939091019283015250602201919050565b8082018082111561041257634e487b7160e01b5f52601160045260245ffd5b60208082526012908201527145786365656473206d617820737570706c7960701b604082015260600190565b634e487b7160e01b5f52603260045260245ffd5b604081525f611b46604083018561190b565b8281036020840152611b58818561190b565b95945050505050565b6001600160a01b0386811682528516602082015260a0604082018190525f90611b8c9083018661190b565b8281036060840152611b9e818661190b565b90508281036080840152611bb28185611507565b98975050505050505050565b5f60208284031215611bce575f5ffd5b81516114e9816114b9565b6001600160a01b03868116825285166020820152604081018490526060810183905260a0608082018190525f90611c1290830184611507565b97965050505050505056fea2646970667358221220539dac3d94938a75b0a7f583e1d9f8b68ab16fefb2b93e66cd929f9f86e7c0b264736f6c6343000821003368747470733a2f2f6170692e67616d6566692e636f6d2f6974656d732f7b69647d2e6a736f6e","linkReferences":{}},"methodIdentifiers":{"CRYSTAL()":"ae44ad42","DEFAULT_ADMIN_ROLE()":"a217fddf","DRAGON_SHIELD()":"cc7871ff","GOLD()":"3e4bee38","IRON()":"1fd81bcd","LEGENDARY_SWORD()":"34845148","MAGIC_STAFF()":"87543a38","MINTER_ROLE()":"d5391393","WOOD()":"5653e3ac","balanceOf(address,uint256)":"00fdd58e","balanceOfBatch(address[],uint256[])":"4e1273f4","craft(uint256[],uint256[],uint256,uint256)":"39708efa","getRoleAdmin(bytes32)":"248a9ca3","grantRole(bytes32,address)":"2f2ff15d","hasRole(bytes32,address)":"91d14854","isApprovedForAll(address,address)":"e985e9c5","maxSupply(uint256)":"869f7594","mint(address,uint256,uint256)":"156e29f6","mintBatch(address,uint256[],uint256[])":"d81d0a15","renounceRole(bytes32,address)":"36568abe","revokeRole(bytes32,address)":"d547741f","safeBatchTransferFrom(address,address,uint256[],uint256[],bytes)":"2eb2c2d6","safeTransferFrom(address,address,uint256,uint256,bytes)":"f242432a","setApprovalForAll(address,bool)":"a22cb465","supportsInterface(bytes4)":"01ffc9a7","totalMinted(uint256)":"9d7f4ebf","uri(uint256)":"0e89341c"},"id":87}