{"abi":[{"type":"constructor","inputs":[{"name":"_token0","type":"address","internalType":"address"},{"name":"_token1","type":"address","internalType":"address"}],"stateMutability":"nonpayable"},{"type":"function","name":"FEE","inputs":[],"outputs":[{"name":"","type":"uint256","internalType":"uint256"}],"stateMutability":"view"},{"type":"function","name":"addLiquidity","inputs":[{"name":"amount0","type":"uint256","internalType":"uint256"},{"name":"amount1","type":"uint256","internalType":"uint256"}],"outputs":[{"name":"lpMinted","type":"uint256","internalType":"uint256"}],"stateMutability":"nonpayable"},{"type":"function","name":"getAmountOut","inputs":[{"name":"tokenIn","type":"address","internalType":"address"},{"name":"amountIn","type":"uint256","internalType":"uint256"}],"outputs":[{"name":"","type":"uint256","internalType":"uint256"}],"stateMutability":"view"},{"type":"function","name":"lpToken","inputs":[],"outputs":[{"name":"","type":"address","internalType":"contract LPToken"}],"stateMutability":"view"},{"type":"function","name":"removeLiquidity","inputs":[{"name":"lpAmount","type":"uint256","internalType":"uint256"}],"outputs":[{"name":"amount0","type":"uint256","internalType":"uint256"},{"name":"amount1","type":"uint256","internalType":"uint256"}],"stateMutability":"nonpayable"},{"type":"function","name":"reserve0","inputs":[],"outputs":[{"name":"","type":"uint256","internalType":"uint256"}],"stateMutability":"view"},{"type":"function","name":"reserve1","inputs":[],"outputs":[{"name":"","type":"uint256","internalType":"uint256"}],"stateMutability":"view"},{"type":"function","name":"swap","inputs":[{"name":"tokenIn","type":"address","internalType":"address"},{"name":"amountIn","type":"uint256","internalType":"uint256"},{"name":"minAmountOut","type":"uint256","internalType":"uint256"}],"outputs":[{"name":"amountOut","type":"uint256","internalType":"uint256"}],"stateMutability":"nonpayable"},{"type":"function","name":"token0","inputs":[],"outputs":[{"name":"","type":"address","internalType":"contract IERC20"}],"stateMutability":"view"},{"type":"function","name":"token1","inputs":[],"outputs":[{"name":"","type":"address","internalType":"contract IERC20"}],"stateMutability":"view"},{"type":"event","name":"LiquidityAdded","inputs":[{"name":"provider","type":"address","indexed":true,"internalType":"address"},{"name":"amount0","type":"uint256","indexed":false,"internalType":"uint256"},{"name":"amount1","type":"uint256","indexed":false,"internalType":"uint256"},{"name":"lpMinted","type":"uint256","indexed":false,"internalType":"uint256"}],"anonymous":false},{"type":"event","name":"LiquidityRemoved","inputs":[{"name":"provider","type":"address","indexed":true,"internalType":"address"},{"name":"amount0","type":"uint256","indexed":false,"internalType":"uint256"},{"name":"amount1","type":"uint256","indexed":false,"internalType":"uint256"},{"name":"lpBurned","type":"uint256","indexed":false,"internalType":"uint256"}],"anonymous":false},{"type":"event","name":"Swap","inputs":[{"name":"trader","type":"address","indexed":true,"internalType":"address"},{"name":"tokenIn","type":"address","indexed":false,"internalType":"address"},{"name":"amountIn","type":"uint256","indexed":false,"internalType":"uint256"},{"name":"amountOut","type":"uint256","indexed":false,"internalType":"uint256"}],"anonymous":false},{"type":"error","name":"ReentrancyGuardReentrantCall","inputs":[]},{"type":"error","name":"SafeERC20FailedOperation","inputs":[{"name":"token","type":"address","internalType":"address"}]}],"bytecode":{"object":"0x60e060405234801561000f575f5ffd5b506040516119d03803806119d083398101604081905261002e916100c7565b60017f9b779b17422d0df92223018b32b4d1fa46e071723d6817e2486d003becc55f00556001600160a01b03808316608052811660a0526040516100719061009f565b604051809103905ff08015801561008a573d5f5f3e3d5ffd5b506001600160a01b031660c052506100f89050565b610a5180610f7f83390190565b80516001600160a01b03811681146100c2575f5ffd5b919050565b5f5f604083850312156100d8575f5ffd5b6100e1836100ac565b91506100ef602084016100ac565b90509250929050565b60805160a05160c051610dfc6101835f395f8181610107015281816101c6015281816102ed015281816104b7015261062801525f8181610197015281816103bb0152818161048c0152818161072d01526108d201525f818160a40152818161038701528181610457015281816106f2015281816107a00152818161093901526109d10152610dfc5ff3fe608060405234801561000f575f5ffd5b506004361061009b575f3560e01c80639cd441da116100635780639cd441da146101515780639f1d0f5914610164578063c57981b514610177578063ca706bcf1461017f578063d21220a714610192575f5ffd5b80630dfe16811461009f578063443cb4bc146100e35780635a76f25e146100f95780635fcbd285146101025780639c8f9f2314610129575b5f5ffd5b6100c67f000000000000000000000000000000000000000000000000000000000000000081565b6040516001600160a01b0390911681526020015b60405180910390f35b6100eb5f5481565b6040519081526020016100da565b6100eb60015481565b6100c67f000000000000000000000000000000000000000000000000000000000000000081565b61013c610137366004610c75565b6101b9565b604080519283526020830191909152016100da565b6100eb61015f366004610c8c565b610441565b6100eb610172366004610cc7565b6106e7565b6100eb600381565b6100eb61018d366004610cf7565b6109cd565b6100c67f000000000000000000000000000000000000000000000000000000000000000081565b5f5f6101c3610a72565b5f7f00000000000000000000000000000000000000000000000000000000000000006001600160a01b03166318160ddd6040518163ffffffff1660e01b8152600401602060405180830381865afa158015610220573d5f5f3e3d5ffd5b505050506040513d601f19601f820116820180604052508101906102449190610d1f565b9050805f54856102549190610d4a565b61025e9190610d61565b9250806001548561026f9190610d4a565b6102799190610d61565b91505f8311801561028957505f82115b6102d15760405162461bcd60e51b8152602060048201526014602482015273496e73756666696369656e7420616d6f756e747360601b60448201526064015b60405180910390fd5b604051632770a7eb60e21b8152336004820152602481018590527f00000000000000000000000000000000000000000000000000000000000000006001600160a01b031690639dc29fac906044015f604051808303815f87803b158015610336575f5ffd5b505af1158015610348573d5f5f3e3d5ffd5b50505050825f5f82825461035c9190610d80565b925050819055508160015f8282546103749190610d80565b909155506103ae90506001600160a01b037f0000000000000000000000000000000000000000000000000000000000000000163385610a8d565b6103e26001600160a01b037f0000000000000000000000000000000000000000000000000000000000000000163384610a8d565b604080518481526020810184905290810185905233907f1dc8bb69df2b8e91fbdcbfcf93d951b3f0000f085a95fe3f7946d6161439245d9060600160405180910390a25061043c60015f516020610da75f395f51905f5255565b915091565b5f61044a610a72565b61047f6001600160a01b037f000000000000000000000000000000000000000000000000000000000000000016333086610ac7565b6104b46001600160a01b037f000000000000000000000000000000000000000000000000000000000000000016333085610ac7565b5f7f00000000000000000000000000000000000000000000000000000000000000006001600160a01b03166318160ddd6040518163ffffffff1660e01b8152600401602060405180830381865afa158015610511573d5f5f3e3d5ffd5b505050506040513d601f19601f820116820180604052508101906105359190610d1f565b9050805f036105575761055061054b8486610d4a565b610b03565b9150610590565b5f5461058d906105678387610d4a565b6105719190610d61565b60015461057e8487610d4a565b6105889190610d61565b610b60565b91505b5f82116105df5760405162461bcd60e51b815260206004820152601d60248201527f496e73756666696369656e74206c6971756964697479206d696e74656400000060448201526064016102c8565b835f5f8282546105ef9190610d93565b925050819055508260015f8282546106079190610d93565b90915550506040516340c10f1960e01b8152336004820152602481018390527f00000000000000000000000000000000000000000000000000000000000000006001600160a01b0316906340c10f19906044015f604051808303815f87803b158015610671575f5ffd5b505af1158015610683573d5f5f3e3d5ffd5b505060408051878152602081018790529081018590523392507f64b83944e79c3ce8d4c297411de637c3e102d064677aac0c163976ebdcd6f50e915060600160405180910390a2506106e160015f516020610da75f395f51905f5255565b92915050565b5f6106f0610a72565b7f00000000000000000000000000000000000000000000000000000000000000006001600160a01b0316846001600160a01b0316148061076157507f00000000000000000000000000000000000000000000000000000000000000006001600160a01b0316846001600160a01b0316145b61079d5760405162461bcd60e51b815260206004820152600d60248201526c24b73b30b634b2103a37b5b2b760991b60448201526064016102c8565b5f7f00000000000000000000000000000000000000000000000000000000000000006001600160a01b0316856001600160a01b03161490505f5f826107e6576001545f546107ec565b5f546001545b90925090506108066001600160a01b038816333089610ac7565b5f61081460036103e8610d80565b61081e9088610d4a565b90508061082d846103e8610d4a565b6108379190610d93565b6108418383610d4a565b61084b9190610d61565b9450858510156108915760405162461bcd60e51b815260206004820152601160248201527014db1a5c1c1859d948195e18d959591959607a1b60448201526064016102c8565b83156108fe57865f5f8282546108a79190610d93565b925050819055508460015f8282546108bf9190610d80565b909155506108f990506001600160a01b037f0000000000000000000000000000000000000000000000000000000000000000163387610a8d565b610960565b8660015f82825461090f9190610d93565b92505081905550845f5f8282546109269190610d80565b9091555061096090506001600160a01b037f0000000000000000000000000000000000000000000000000000000000000000163387610a8d565b604080516001600160a01b038a1681526020810189905290810186905233907ffa2dda1cc1b86e41239702756b13effbc1a092b5c57e3ad320fbe4f3b13fe2359060600160405180910390a2505050506109c660015f516020610da75f395f51905f5255565b9392505050565b5f5f7f00000000000000000000000000000000000000000000000000000000000000006001600160a01b0316846001600160a01b03161490505f5f82610a17576001545f54610a1d565b5f546001545b90925090505f610a3060036103e8610d80565b610a3a9087610d4a565b905080610a49846103e8610d4a565b610a539190610d93565b610a5d8383610d4a565b610a679190610d61565b979650505050505050565b610a7a610b75565b60025f516020610da75f395f51905f5255565b610a9a8383836001610ba6565b610ac257604051635274afe760e01b81526001600160a01b03841660048201526024016102c8565b505050565b610ad5848484846001610c08565b610afd57604051635274afe760e01b81526001600160a01b03851660048201526024016102c8565b50505050565b5f815f03610b1257505f919050565b5f6002610b20846001610d93565b610b2a9190610d61565b9050825b808210156109c6575080600281610b458187610d61565b610b4f9190610d93565b610b599190610d61565b9150610b2e565b5f818310610b6e57816109c6565b5090919050565b5f516020610da75f395f51905f5254600203610ba457604051633ee5aeb560e01b815260040160405180910390fd5b565b60405163a9059cbb60e01b5f8181526001600160a01b038616600452602485905291602083604481808b5af1925060015f51148316610bfc578383151615610bf0573d5f823e3d81fd5b5f873b113d1516831692505b60405250949350505050565b6040516323b872dd60e01b5f8181526001600160a01b038781166004528616602452604485905291602083606481808c5af1925060015f51148316610c64578383151615610c58573d5f823e3d81fd5b5f883b113d1516831692505b604052505f60605295945050505050565b5f60208284031215610c85575f5ffd5b5035919050565b5f5f60408385031215610c9d575f5ffd5b50508035926020909101359150565b80356001600160a01b0381168114610cc2575f5ffd5b919050565b5f5f5f60608486031215610cd9575f5ffd5b610ce284610cac565b95602085013595506040909401359392505050565b5f5f60408385031215610d08575f5ffd5b610d1183610cac565b946020939093013593505050565b5f60208284031215610d2f575f5ffd5b5051919050565b634e487b7160e01b5f52601160045260245ffd5b80820281158282048414176106e1576106e1610d36565b5f82610d7b57634e487b7160e01b5f52601260045260245ffd5b500490565b818103818111156106e1576106e1610d36565b808201808211156106e1576106e1610d3656fe9b779b17422d0df92223018b32b4d1fa46e071723d6817e2486d003becc55f00a26469706673582212207f3c6eb9e6dae0eca945f2faaf34dfd46e318a15d9ce3bcd2e53bf584c51ada264736f6c6343000821003360a060405234801561000f575f5ffd5b5060405180604001604052806009815260200168047616d654669204c560bc1b815250604051806040016040528060038152602001620474c560ec1b815250816003908161005d9190610119565b50600461006a8282610119565b505033608052506101d7565b634e487b7160e01b5f52604160045260245ffd5b600181811c9082168061009e57607f821691505b6020821081036100bc57634e487b7160e01b5f52602260045260245ffd5b50919050565b601f821115610114578282111561011457805f5260205f20601f840160051c60208510156100ed57505f5b90810190601f840160051c035f5b81811015610110575f838201556001016100fb565b5050505b505050565b81516001600160401b0381111561013257610132610076565b61014681610140845461008a565b846100c2565b6020601f821160018114610178575f83156101615750848201515b5f19600385901b1c1916600184901b1784556101d0565b5f84815260208120601f198516915b828110156101a75787850151825560209485019460019092019101610187565b50848210156101c457868401515f19600387901b60f8161c191681555b505060018360011b0184555b5050505050565b6080516108546101fd5f395f8181610120015281816102e3015261033401526108545ff3fe608060405234801561000f575f5ffd5b50600436106100b1575f3560e01c806340c10f191161006e57806340c10f191461016957806370a082311461017e57806395d89b41146101a65780639dc29fac146101ae578063a9059cbb146101c1578063dd62ed3e146101d4575f5ffd5b806306fdde03146100b5578063095ea7b3146100d357806318160ddd146100f657806323b872dd146101085780632a9439451461011b578063313ce5671461015a575b5f5ffd5b6100bd61020c565b6040516100ca91906106c4565b60405180910390f35b6100e66100e1366004610714565b61029c565b60405190151581526020016100ca565b6002545b6040519081526020016100ca565b6100e661011636600461073c565b6102b5565b6101427f000000000000000000000000000000000000000000000000000000000000000081565b6040516001600160a01b0390911681526020016100ca565b604051601281526020016100ca565b61017c610177366004610714565b6102d8565b005b6100fa61018c366004610776565b6001600160a01b03165f9081526020819052604090205490565b6100bd61031a565b61017c6101bc366004610714565b610329565b6100e66101cf366004610714565b610367565b6100fa6101e2366004610796565b6001600160a01b039182165f90815260016020908152604080832093909416825291909152205490565b60606003805461021b906107c7565b80601f0160208091040260200160405190810160405280929190818152602001828054610247906107c7565b80156102925780601f1061026957610100808354040283529160200191610292565b820191905f5260205f20905b81548152906001019060200180831161027557829003601f168201915b5050505050905090565b5f336102a9818585610374565b60019150505b92915050565b5f336102c2858285610386565b6102cd858585610407565b506001949350505050565b336001600160a01b037f0000000000000000000000000000000000000000000000000000000000000000161461030c575f5ffd5b6103168282610464565b5050565b60606004805461021b906107c7565b336001600160a01b037f0000000000000000000000000000000000000000000000000000000000000000161461035d575f5ffd5b6103168282610498565b5f336102a9818585610407565b61038183838360016104cc565b505050565b6001600160a01b038381165f908152600160209081526040808320938616835292905220545f1981101561040157818110156103f357604051637dc7a0d960e11b81526001600160a01b038416600482015260248101829052604481018390526064015b60405180910390fd5b61040184848484035f6104cc565b50505050565b6001600160a01b03831661043057604051634b637e8f60e11b81525f60048201526024016103ea565b6001600160a01b0382166104595760405163ec442f0560e01b81525f60048201526024016103ea565b61038183838361059e565b6001600160a01b03821661048d5760405163ec442f0560e01b81525f60048201526024016103ea565b6103165f838361059e565b6001600160a01b0382166104c157604051634b637e8f60e11b81525f60048201526024016103ea565b610316825f8361059e565b6001600160a01b0384166104f55760405163e602df0560e01b81525f60048201526024016103ea565b6001600160a01b03831661051e57604051634a1406b160e11b81525f60048201526024016103ea565b6001600160a01b038085165f908152600160209081526040808320938716835292905220829055801561040157826001600160a01b0316846001600160a01b03167f8c5be1e5ebec7d5bd14f71427d1e84f3dd0314c0f7b2291e5b200ac8c7c3b9258460405161059091815260200190565b60405180910390a350505050565b6001600160a01b0383166105c8578060025f8282546105bd91906107ff565b909155506106389050565b6001600160a01b0383165f908152602081905260409020548181101561061a5760405163391434e360e21b81526001600160a01b038516600482015260248101829052604481018390526064016103ea565b6001600160a01b0384165f9081526020819052604090209082900390555b6001600160a01b03821661065457600280548290039055610672565b6001600160a01b0382165f9081526020819052604090208054820190555b816001600160a01b0316836001600160a01b03167fddf252ad1be2c89b69c2b068fc378daa952ba7f163c4a11628f55a4df523b3ef836040516106b791815260200190565b60405180910390a3505050565b602081525f82518060208401528060208501604085015e5f604082850101526040601f19601f83011684010191505092915050565b80356001600160a01b038116811461070f575f5ffd5b919050565b5f5f60408385031215610725575f5ffd5b61072e836106f9565b946020939093013593505050565b5f5f5f6060848603121561074e575f5ffd5b610757846106f9565b9250610765602085016106f9565b929592945050506040919091013590565b5f60208284031215610786575f5ffd5b61078f826106f9565b9392505050565b5f5f604083850312156107a7575f5ffd5b6107b0836106f9565b91506107be602084016106f9565b90509250929050565b600181811c908216806107db57607f821691505b6020821081036107f957634e487b7160e01b5f52602260045260245ffd5b50919050565b808201808211156102af57634e487b7160e01b5f52601160045260245ffdfea26469706673582212207e9927a245d4f6b1e72fb492eaef1668a419aec7423d82352cb5d05dd2cede4964736f6c63430008210033","linkReferences":{}},"methodIdentifiers":{"FEE()":"c57981b5","addLiquidity(uint256,uint256)":"9cd441da","getAmountOut(address,uint256)":"ca706bcf","lpToken()":"5fcbd285","removeLiquidity(uint256)":"9c8f9f23","reserve0()":"443cb4bc","reserve1()":"5a76f25e","swap(address,uint256,uint256)":"9f1d0f59","token0()":"0dfe1681","token1()":"d21220a7"},"id":94}